:020000040800F2
:1000000000500020351200087D1200087D12000803
:100010007D1200087D1200087D120008000000001B
:100020000000000000000000000000007D12000839
:100030007D120008000000007D1200087D120008FB
:100040007D1200087D1200087D1200087D12000854
:100050007D1200087D1200087D1200087D12000844
:100060007D1200087D1200087D1200087D12000834
:100070007D1200087D1200087D1200087D12000824
:100080007D1200087D1200087D1200087D12000814
:100090007D1200087D1200087D1200087D12000804
:1000A0007D1200087D1200087D1200087D120008F4
:1000B0007D1200087D1200087D1200087D120008E4
:1000C0007D1200087D1200087D1200087D120008D4
:1000D0007D1200087D1200087D1200087D120008C4
:1000E0007D1200087D1200087D120008000000004B
:1000F0000000000000000000000000000000000000
:0C01000000000000000000005FF808F1A3
:10010C00044B05481B1A062B02D9044B03B11847A4
:10011C00704700BF5B040020580400200000000062
:10012C0005490648091A891001EBD171491002D012
:10013C00034B03B1184770475804002058040020A3
:10014C000000000010B5064C237843B9FFF7D8FF28
:10015C00044B13B10448AFF300800123237010BD8E
:10016C0058040020000000000C01000808B5084BE2
:10017C001BB108490848AFF300800848036813B95D
:10018C00BDE80840CCE7064B002BF9D09847F7E7C1
:10019C00000000005C0400200C0100085804002042
:1001AC00000000003B4B3C4A196841F0010119600A
:1001BC0059680A405A601A6822F0847222F480321C
:1001CC001A601A6822F480221A605A6882B022F4EB
:1001DC00FE0200214FF41F005A60986000910191BB
:1001EC001A6842F480321A601A4603E0009BB3F599
:1001FC00A06F09D0136803F400330193009B013303
:10020C000093019B002BF1D0224B1B6813F400339D
:10021C0018BF01230193019B012B05D01F4B4FF0FD
:10022C0000629A6002B070471D4A1A4B116841F087
:10023C0010011160116821F003011160116841F087
:10024C00020111605A685A605A685A605A6842F43E
:10025C0080625A605A6822F47C125A605A6842F4DE
:10026C00E8125A601A6842F080721A601A461168D5
:10027C00084B8901FBD55A6822F003025A605A6870
:10028C0042F002025A601A46536803F00C03082B22
:10029C00FAD1C3E7001002400000FFF800ED00E0C7
:1002AC0000200240114A536803F00C03082B0ED1B6
:1002BC0053685168C3F38343C90303F1020310D598
:1002CC00526892030DD40A4A02FB03F300E0084B78
:1002DC00064A08495268C2F303128A5CD3400B6188
:1002EC007047054A02FB03F3F2E700BF001002401F
:1002FC0000127A000000002000093D0008B52F4BC9
:10030C0098421ED02E4B984225D02E4B98422CD082
:10031C002D4B984233D02D4B98423AD02C4B9842CF
:10032C0041D02C4B984200D008BD01214FF4807075
:10033C0000F0B8FC00214FF48070BDE8084000F0DC
:10034C00B1BC0121042000F0ADFC00210420BDE86B
:10035C00084000F0A7BC0121082000F0A3FC0021FC
:10036C000820BDE8084000F09DBC0121102000F0E1
:10037C0099FC00211020BDE8084000F093BC01213D
:10038C00202000F08FFC00212020BDE8084000F068
:10039C0089BC0121402000F085FC00214020BDE8F3
:1003AC00084000F07FBC0121802000F07BFC002184
:1003BC008020BDE8084000F075BC00BF000801407B
:1003CC00000C0140001001400014014000180140D5
:1003DC00001C01400020014008B50121084600F036
:1003EC0061FC00210120BDE8084000F05BBC00BFAF
:1003FC002DE9F041CC78E30648BF8B78098804F0EE
:10040C000F0748BF1F4311F0FF0F21D006680023D0
:10041C004FF0010E4FF00F0802E00133082B16D0FD
:10042C000EFA03F232EA0105F7D19D0008FA05FC39
:10043C0026EA0C0607FA05F5282C46EA050631D003
:10044C00482C03F1010308BF0261082BE8D10660B8
:10045C00FF2923D9466800234FF0010E4FF00F08F7
:10046C0002E00133082B18D003F108020EFA02F255
:10047C0032EA0105F5D19D0008FA05FC26EA0C06C6
:10048C0007FA05F5282C46EA050609D0482C03F195
:10049C00010308BF0261082BE6D14660BDE8F0817C
:1004AC004261DEE74261B8E74FF6FF710222042396
:1004BC0001808270C37070478368194214BF012099
:1004CC0000207047806880B2704700BFC368194233
:1004DC0014BF012000207047C06880B2704700BF75
:1004EC0001617047416170470AB941617047016110
:1004FC00704700BFC160704741F4803383618161F4
:10050C008361836983697047064A10B414684FF697
:10051C0080732340194341EA001010605DF8044BCE
:10052C00704700BF00000140014B1860704700BFCE
:10053C001C0020420028194B00F44012B4BFDB69A8
:10054C005B68B2F5401F30B484B21ED0C20213D522
:10055C00C0F303450322AA4023EA020343F070636D
:10056C0019B1420D1201944023430C4A0028B4BF28
:10057C00D361536030BC7047420D120104FA02F291
:10058C0023EA020343F07063EAE7044D6A6822F041
:10059C00706223F070636A60E2E700BF0000014004
:1005AC0001F0FC0303F1804303F5803301F00301F8
:1005BC0010B489009C680F228A4024EA02029A60D7
:1005CC009A685DF8044B884010439860704700BFF0
:1005DC00014B1860704700BFDC00204208B50D4B82
:1005EC0098424FF001010AD04FF4800000F068FBF4
:1005FC0000214FF48000BDE8084000F061BB4FF4CF
:10060C00001000F05DFB00214FF40010BDE8084025
:10061C0000F056BB00540040F0B5054687B001A869
:10062C000E46AC8800F0CCFA039B32483268DFF8F7
:10063C00CCE0A0FB031024F03F042404800C240C19
:10064C0087B23C43AC80298821F001010904090CD4
:10065C007245298024D85200B3FBF2F39BB2032BD2
:10066C0007F1010798BF04232F84AB832888B78830
:10067C007289B489318980B240F0010028802B88BE
:10068C0023F4816323F002031B043A431B0C134332
:10069C0044EA01029BB292B22B802A8107B0F0BDD2
:1006AC00F4884BF6FF718C421DD002EB820202EBF8
:1006BC008202B3FBF2F39BB243F48043C3F30B020D
:1006CC000AB943F001034FF496710B4C01FB00F295
:1006DC0084FB0201D217C2EBA112013292B243F495
:1006EC0000432A84C1E702EB4202B3FBF2F39BB254
:1006FC00E4E700BF83DE1B43D34D6210A0860100EC
:10070C00002310B44BF6FF7141F288344FF4804251
:10071C000460C18082818380038143815DF8044B36
:10072C00704700BF038829B923F001031B041B0C7D
:10073C00038070479BB243F001030380704700BFF6
:10074C00838829B923F400631B041B0C8380704736
:10075C009BB243F400638380704700BF838829B940
:10076C0023F480531B041B0C838070479BB243F40F
:10077C0080538380704700BF038829B923F48073AA
:10078C001B041B0C038070479BB243F480730380E3
:10079C00704700BF038829B923F400731B041B0C9A
:1007AC00038070479BB243F400730380704700BF13
:1007BC00038829B923F480631B041B0C0380704746
:1007CC009BB243F480630380704700BF83899BB264
:1007DC0001F0FE0123F0FE0319438181704700BF35
:1007EC00838929B923F001031B041B0C83817047F7
:1007FC009BB243F001038381704700BF038829B982
:10080C0023F040031B041B0C038070479BB243F086
:10081C0040030380704700BF83889BB21AB923EA58
:10082C0001018180704719438180704701827047B4
:10083C00008AC0B2704700BF22B901F0FE0189B234
:10084C000182704741F0010189B20182704700BFFB
:10085C0082B0002301930190019B19440191019BEB
:10086C00188880B202B07047038819B9C3F30E031D
:10087C00038070476FEA43436FEA53439BB2038094
:10088C00704700BFB1F5005F038805D023F4005317
:10089C001B041B0C038070479BB243F40053038072
:1008AC00704700BF038829B923F480531B041B0C29
:1008BC00038070479BB243F480530380704700BFA2
:1008CC00B1F5006F038805D023F400631B041B0CE7
:1008DC00038070479BB243F400630380704700BFF2
:1008EC00FFF7EEBF038829B923F020031B041B0C70
:1008FC00038070479BB243F020030380704700BF16
:10090C00008BC0F307207047038829B923F010032C
:10091C001B041B0C038070479BB243F01003038035
:10092C00704700BF038829B123F080031B041B0C04
:10093C00038070479BB243F080030380704700BF75
:10094C00B1F5804F838B05D023F480431B041B0C23
:10095C00838370479BB243F480438383704700BF0B
:10096C00838A008B9BB243EA004321F07F4203EA67
:10097C000200401AB0FA80F040097047838A028B5B
:10098C0098B240EA024020F07F40704782B00023CA
:10099C000A0F0093019301900092009B21F07F417C
:1009AC0053B1019B14330193019B1B68194214BF73
:1009BC000120002002B07047019B1833090C0193F1
:1009CC00F2E700BFC94389B2818270478388808A6D
:1009DC0080B208409BB206D003F4E06313EA1143E3
:1009EC0014BF012000207047C94389B2818270472F
:1009FC000D4B0E4A196841F00101196059680A4003
:100A0C005A601A6822F0847222F480321A601A68D2
:100A1C0022F480221A605A684FF41F0122F4FE025D
:100A2C005A609960704700BF001002400000FFF848
:100A3C000C4B1A6822F480321A601A68B0F5803FA9
:100A4C0022F480221A6008D0B0F5802F04D11A68E5
:100A5C0042F4A0221A60704770471A6842F4803240
:100A6C001A6070470010024082B000230A4A0193BA
:100A7C0002E0B3F5A06F08D0136813F4003F019B9C
:100A8C0003F101030193019BF3D0034B1868C0F3EE
:100A9C00404002B0704700BF00100240034A136888
:100AAC0023F0F80343EAC0001060704700100240C6
:100ABC00014B1860704700BF00004242034A536864
:100ACC0023F47C1319430843506070470010024014
:100ADC00014B1860704700BF60004242034A5368E4
:100AEC0023F0030318435060704700BF001002400E
:100AFC00024B586800F00C00704700BF0010024019
:100B0C00034A536823F0F00318435060704700BF4A
:100B1C0000100240034A536823F4E063184350600A
:100B2C00704700BF00100240034A536823F460531F
:100B3C0043EAC000506070470010024029B9054AD2
:100B4C00137823EA000010707047024B1A78104398
:100B5C001870704709100240014B1860704700BFB5
:100B6C00D8004242034A536823F440431843506070
:100B7C00704700BF00100240064B002201281A707B
:100B8C001A7005D0042802D105221A7070477047DC
:100B9C001870704720100240014B1860704700BF5E
:100BAC0080044242024A136A18431062704700BF25
:100BBC0000100240014B1860704700BF3C044242D9
:100BCC001F4A536803F00C03042B10B401D0082BFC
:100BDC0021D01C4B03601A4A1B495468C4F30314FC
:100BEC000C5DE34043605468C4F302240C5D23FAAB
:100BFC0004F484605468C4F3C2240C5DE340C36005
:100C0C0052685DF8044BC2F381320A44127CB3FB88
:100C1C00F2F30361704753685168C3F38343C9030C
:100C2C0003F1020307D55268920304D4054A02FB70
:100C3C0003F30360CFE7054A02FB03F30360CAE743
:100C4C000010024000127A001400002000093D0040
:100C5C0029B9054A536923EA000050617047024BD9
:100C6C005A691043586170470010024029B9054A6F
:100C7C00936923EA000090617047024B9A69104314
:100C8C00986170470010024029B9054AD36923EADC
:100C9C000000D0617047024BDA691043D86170478D
:100CAC000010024029B9054AD36823EA0000D0603D
:100CBC007047024BDA681043D8607047001002404E
:100CCC0029B9054A136923EA000010617047024BE9
:100CDC001A6910431861704700100240014B1860EC
:100CEC00704700BF40044242014B1860704700BF80
:100CFC004C004242014B1870704700BF0710024075
:100D0C004309012B0BD0022B094B0CBF1B6A5B6AEE
:100D1C0000F01F0023FA00F000F001007047044BB4
:100D2C001B6800F01F0023FA00F000F00100704770
:100D3C0000100240024A536A43F0807353627047BA
:100D4C0000100240034B9B68184214BF0120002086
:100D5C00704700BF00100240014B1870704700BF75
:100D6C000A100240F0B5012187B00846FFF77EFF5C
:100D7C0001210220FFF7DEFB01214FF40010FFF7E9
:100D8C0083FF01210820FFF771FF06AC03221C230F
:100D9C0001A94FF440761448144DADF804608DF859
:100DAC0006208DF80730FFF723FB114B44F8103D5C
:100DBC004FF48042002328464BF6FF774FF48066B1
:100DCC000121ADF80C30ADF81030ADF81420ADF8B1
:100DDC000E70ADF81260FFF7A5FC21462846FFF710
:100DEC001BFC07B0F0BD00BF000C014000540040DC
:100DFC00A086010038B504460D4615480121FFF7C1
:100E0C00BBFC14491248FFF7ABFD0028F9D029466A
:100E1C0000220F48FFF710FD0F490D48FFF7A0FD0A
:100E2C000028F9D021460A48FFF700FD0B49084875
:100E3C00FFF796FD0028F9D001210548FFF7AAFC21
:100E4C0006490348FFF78CFD0028F9D038BD00BFD8
:100E5C0000540040010003008200070084000700DA
:100E6C0038B5104C237843F0040305464E21184640
:100E7C002370FFF7BFFF322000F0E6F8207840EA3D
:100E8C000510C0B24E21FFF7B5FF237803F0FB032A
:100E9C0018464E212370FFF7ADFF3220BDE83840D5
:100EAC0000F0D2B87404002010B50D4A0446137833
:100EBC0071B143F0010318464E211370FFF79AFFEE
:100ECC002009FFF7CDFF2046BDE81040FFF7C8BF53
:100EDC0003F0FE0318464E211370FFF78BFFEFE76C
:100EEC00740400200121FFF7DFBF00BF03291DD8C8
:100EFC00DFE801F017100902543060F07F00C0B237
:100F0C000021FFF7D1BF143060F07F00C0B2002188
:100F1C00FFF7CABF403060F07F00C0B20021FFF77E
:100F2C00C3BF40F080000021FFF7BEBF704700BF79
:100F3C0010B50F2000F06EF80320FFF791FF04208E
:100F4C0000F068F80320FFF78BFF642000F07CF8BA
:100F5C000320FFF785FF012000F05CF80220FFF76B
:100F6C007FFF012000F056F800212820FFF79CFF9E
:100F7C00012000F04FF800210C20FFF795FF012015
:100F8C0000F048F80C4C00210620FFF78DFF0120E3
:100F9C0000F040F8237843F0080318464E212370E4
:100FAC00FFF728FF237803F0FD03237018464E212A
:100FBC00BDE81040FFF71EBF7404002008B50120E7
:100FCC000021FFF771FF40F2DC50BDE8084000F053
:100FDC003BB800BF10B50446007830B10121FFF7D3
:100FEC0063FF14F8010F0028F8D110BD00F00700C2
:100FFC00C00038B540F040000D460021FFF754FF0B
:10100C006C1E073514F8010F0121FFF74DFFAC42A0
:10101C00F8D138BD10B586B0044601A8FFF7D0FD55
:10102C00029B084AA2FB03235B0B04FB03F3009314
:10103C00009B2BB1009B013B0093009B002BF9D133
:10104C0006B010BD5917B7D110B586B0044601A82B
:10105C00FFF7B6FD029B084AA2FB03239B0D04FB82
:10106C0003F30093009B2BB1009B013B0093009B6F
:10107C00002BF9D106B010BD6BCA5F6B0023014683
:10108C001A46184600F03CB838B5074D074C2C1BD7
:10109C00A41005D0013C55F8043D9847002CF9D11B
:1010AC00BDE8384000F004B9D4120008D012000892
:1010BC0070B50F4E0F4D761BB61018BF002405D01F
:1010CC00013455F8043B9847A642F9D10A4E0B4D12
:1010DC00761B00F0E7F8B61018BF002406D00134D8
:1010EC0055F8043B9847A642F9D170BD70BD00BFBE
:1010FC00C8120008C8120008D0120008C812000854
:10110C002DE9F047254C2568D5F848410646884618
:10111C0092469946C4B360681F2817DC431C76B10D
:10112C0004EB80050122C5F888A0D4F88811824010
:10113C001143022EC4F88811C5F808911ED0023054
:10114C00636044F820800020BDE8F087144B03B3A3
:10115C004FF4C870AFF300800446D0B1D5F84831D5
:10116C00002780E88800C5F8484138460123C4F8B8
:10117C008871C4F88C71002EE1D0D1E7D4F88C11B1
:10118C000A43C4F88C21DAE705F5A674C5F8484182
:10119C00C1E74FF0FF30BDE8F08700BF94120008A4
:1011AC000000000010B582B0FFF7DCFDFFF7C0FEB9
:1011BC00FFF704FF00210320FFF798FE1748FFF705
:1011CC0009FF01210320FFF791FE1548FFF702FFED
:1011DC0001210920FFF74AFD4FF48044102203231C
:1011EC0001A91048ADF804408DF807208DF80630A1
:1011FC00FFF7FEF84FF480410A48FFF771F94FF4FE
:10120C00FA70FFF707FF4FF480410648FFF76AF9C1
:10121C004FF4FA70FFF7FEFEECE700BF98120008DF
:10122C00A4120008000C0140002103E00B4B5B589A
:10123C00435004310A480B4B42189A42F6D30A4ADF
:10124C0002E0002342F8043B084B9A42F9D3FEF724
:10125C00A9FFFFF72DFFFFF7A5FF7047D412000879
:10126C0000000020580400205804002078040020BE
:10127C00FEE70000024B13B10248FFF7FFBE7047B8
:10128C0000000000951000083000002042616C6CDA
:10129C002D506C617465000050726F6A6563740048
:1012AC0043000000F8B500BFF8BC08BC9E46704770
:0C12BC00F8B500BFF8BC08BC9E467047A7
:0812C800811200087901000801
:0412D00051010008C0
:1012D40000000000000000000102030406070809E2
:1012E40000A24A04000000000102030401020304F6
:1012F4000607080902040608300000200000000068
:10130400000000001C03002084030020EC030020E4
:1013140000000000000000000000000000000000C9
:1013240000000000000000000000000000000000B9
:1013340000000000AC1200080000000000000000E3
:101344000000000000000000000000000000000099
:101354000000000000000000000000000000000089
:101364000000000000000000000000000000000079
:101374000000000000000000000000000000000069
:101384000000000000000000000000000000000059
:101394000000000000000000000000000000000049
:1013A4000000000000000000010000000000000038
:1013B4000E33CDAB34126DE6ECDE05000B000000FD
:1013C4000000000000000000000000000000000019
:1013D4000000000000000000000000000000000009
:1013E40000000000000000000000000000000000F9
:1013F40000000000000000000000000000000000E9
:0400000508001235A8
:00000001FF
